{
  "_format": "hh3-artifact-1",
  "contractName": "VerifyingPaymaster",
  "sourceName": "contracts/VerifyingPaymaster.sol",
  "abi": [
    {
      "inputs": [
        {
          "internalType": "contract IEntryPoint",
          "name": "_entryPoint",
          "type": "address"
        },
        {
          "internalType": "address",
          "name": "_verifyingSigner",
          "type": "address"
        },
        {
          "internalType": "address",
          "name": "_owner",
          "type": "address"
        }
      ],
      "stateMutability": "nonpayable",
      "type": "constructor"
    },
    {
      "inputs": [],
      "name": "ECDSAInvalidSignature",
      "type": "error"
    },
    {
      "inputs": [
        {
          "internalType": "uint256",
          "name": "length",
          "type": "uint256"
        }
      ],
      "name": "ECDSAInvalidSignatureLength",
      "type": "error"
    },
    {
      "inputs": [
        {
          "internalType": "bytes32",
          "name": "s",
          "type": "bytes32"
        }
      ],
      "name": "ECDSAInvalidSignatureS",
      "type": "error"
    },
    {
      "inputs": [],
      "name": "InsufficientDeposit",
      "type": "error"
    },
    {
      "inputs": [],
      "name": "InvalidSignature",
      "type": "error"
    },
    {
      "inputs": [],
      "name": "InvalidTimeRange",
      "type": "error"
    },
    {
      "inputs": [
        {
          "internalType": "address",
          "name": "owner",
          "type": "address"
        }
      ],
      "name": "OwnableInvalidOwner",
      "type": "error"
    },
    {
      "inputs": [
        {
          "internalType": "address",
          "name": "account",
          "type": "address"
        }
      ],
      "name": "OwnableUnauthorizedAccount",
      "type": "error"
    },
    {
      "inputs": [],
      "name": "SignatureExpired",
      "type": "error"
    },
    {
      "inputs": [],
      "name": "ZeroAddress",
      "type": "error"
    },
    {
      "anonymous": false,
      "inputs": [
        {
          "indexed": false,
          "internalType": "uint256",
          "name": "amount",
          "type": "uint256"
        }
      ],
      "name": "FundsDeposited",
      "type": "event"
    },
    {
      "anonymous": false,
      "inputs": [
        {
          "indexed": true,
          "internalType": "address",
          "name": "to",
          "type": "address"
        },
        {
          "indexed": false,
          "internalType": "uint256",
          "name": "amount",
          "type": "uint256"
        }
      ],
      "name": "FundsWithdrawn",
      "type": "event"
    },
    {
      "anonymous": false,
      "inputs": [
        {
          "indexed": true,
          "internalType": "address",
          "name": "previousOwner",
          "type": "address"
        },
        {
          "indexed": true,
          "internalType": "address",
          "name": "newOwner",
          "type": "address"
        }
      ],
      "name": "OwnershipTransferStarted",
      "type": "event"
    },
    {
      "anonymous": false,
      "inputs": [
        {
          "indexed": true,
          "internalType": "address",
          "name": "previousOwner",
          "type": "address"
        },
        {
          "indexed": true,
          "internalType": "address",
          "name": "newOwner",
          "type": "address"
        }
      ],
      "name": "OwnershipTransferred",
      "type": "event"
    },
    {
      "anonymous": false,
      "inputs": [
        {
          "indexed": true,
          "internalType": "address",
          "name": "oldSigner",
          "type": "address"
        },
        {
          "indexed": true,
          "internalType": "address",
          "name": "newSigner",
          "type": "address"
        }
      ],
      "name": "SignerUpdated",
      "type": "event"
    },
    {
      "anonymous": false,
      "inputs": [
        {
          "indexed": true,
          "internalType": "bytes32",
          "name": "userOpHash",
          "type": "bytes32"
        },
        {
          "indexed": true,
          "internalType": "address",
          "name": "sender",
          "type": "address"
        },
        {
          "indexed": false,
          "internalType": "uint256",
          "name": "actualGasCost",
          "type": "uint256"
        }
      ],
      "name": "UserOperationSponsored",
      "type": "event"
    },
    {
      "inputs": [],
      "name": "acceptOwnership",
      "outputs": [],
      "stateMutability": "nonpayable",
      "type": "function"
    },
    {
      "inputs": [
        {
          "internalType": "uint32",
          "name": "unstakeDelaySec",
          "type": "uint32"
        }
      ],
      "name": "addStake",
      "outputs": [],
      "stateMutability": "payable",
      "type": "function"
    },
    {
      "inputs": [],
      "name": "deposit",
      "outputs": [],
      "stateMutability": "payable",
      "type": "function"
    },
    {
      "inputs": [],
      "name": "depositFunds",
      "outputs": [],
      "stateMutability": "payable",
      "type": "function"
    },
    {
      "inputs": [],
      "name": "entryPoint",
      "outputs": [
        {
          "internalType": "contract IEntryPoint",
          "name": "",
          "type": "address"
        }
      ],
      "stateMutability": "view",
      "type": "function"
    },
    {
      "inputs": [],
      "name": "getDeposit",
      "outputs": [
        {
          "internalType": "uint256",
          "name": "",
          "type": "uint256"
        }
      ],
      "stateMutability": "view",
      "type": "function"
    },
    {
      "inputs": [],
      "name": "owner",
      "outputs": [
        {
          "internalType": "address",
          "name": "",
          "type": "address"
        }
      ],
      "stateMutability": "view",
      "type": "function"
    },
    {
      "inputs": [],
      "name": "pendingOwner",
      "outputs": [
        {
          "internalType": "address",
          "name": "",
          "type": "address"
        }
      ],
      "stateMutability": "view",
      "type": "function"
    },
    {
      "inputs": [
        {
          "internalType": "enum IPaymaster.PostOpMode",
          "name": "mode",
          "type": "uint8"
        },
        {
          "internalType": "bytes",
          "name": "context",
          "type": "bytes"
        },
        {
          "internalType": "uint256",
          "name": "actualGasCost",
          "type": "uint256"
        },
        {
          "internalType": "uint256",
          "name": "actualUserOpFeePerGas",
          "type": "uint256"
        }
      ],
      "name": "postOp",
      "outputs": [],
      "stateMutability": "nonpayable",
      "type": "function"
    },
    {
      "inputs": [],
      "name": "renounceOwnership",
      "outputs": [],
      "stateMutability": "nonpayable",
      "type": "function"
    },
    {
      "inputs": [
        {
          "internalType": "address",
          "name": "newOwner",
          "type": "address"
        }
      ],
      "name": "transferOwnership",
      "outputs": [],
      "stateMutability": "nonpayable",
      "type": "function"
    },
    {
      "inputs": [],
      "name": "unlockStake",
      "outputs": [],
      "stateMutability": "nonpayable",
      "type": "function"
    },
    {
      "inputs": [
        {
          "internalType": "address",
          "name": "newSigner",
          "type": "address"
        }
      ],
      "name": "updateSigner",
      "outputs": [],
      "stateMutability": "nonpayable",
      "type": "function"
    },
    {
      "inputs": [
        {
          "components": [
            {
              "internalType": "address",
              "name": "sender",
              "type": "address"
            },
            {
              "internalType": "uint256",
              "name": "nonce",
              "type": "uint256"
            },
            {
              "internalType": "bytes",
              "name": "initCode",
              "type": "bytes"
            },
            {
              "internalType": "bytes",
              "name": "callData",
              "type": "bytes"
            },
            {
              "internalType": "bytes32",
              "name": "accountGasLimits",
              "type": "bytes32"
            },
            {
              "internalType": "uint256",
              "name": "preVerificationGas",
              "type": "uint256"
            },
            {
              "internalType": "bytes32",
              "name": "gasFees",
              "type": "bytes32"
            },
            {
              "internalType": "bytes",
              "name": "paymasterAndData",
              "type": "bytes"
            },
            {
              "internalType": "bytes",
              "name": "signature",
              "type": "bytes"
            }
          ],
          "internalType": "struct PackedUserOperation",
          "name": "userOp",
          "type": "tuple"
        },
        {
          "internalType": "bytes32",
          "name": "userOpHash",
          "type": "bytes32"
        },
        {
          "internalType": "uint256",
          "name": "maxCost",
          "type": "uint256"
        }
      ],
      "name": "validatePaymasterUserOp",
      "outputs": [
        {
          "internalType": "bytes",
          "name": "context",
          "type": "bytes"
        },
        {
          "internalType": "uint256",
          "name": "validationData",
          "type": "uint256"
        }
      ],
      "stateMutability": "nonpayable",
      "type": "function"
    },
    {
      "inputs": [],
      "name": "verifyingSigner",
      "outputs": [
        {
          "internalType": "address",
          "name": "",
          "type": "address"
        }
      ],
      "stateMutability": "view",
      "type": "function"
    },
    {
      "inputs": [
        {
          "internalType": "address payable",
          "name": "to",
          "type": "address"
        },
        {
          "internalType": "uint256",
          "name": "amount",
          "type": "uint256"
        }
      ],
      "name": "withdrawFunds",
      "outputs": [],
      "stateMutability": "nonpayable",
      "type": "function"
    },
    {
      "inputs": [
        {
          "internalType": "address payable",
          "name": "withdrawAddress",
          "type": "address"
        }
      ],
      "name": "withdrawStake",
      "outputs": [],
      "stateMutability": "nonpayable",
      "type": "function"
    },
    {
      "inputs": [
        {
          "internalType": "address payable",
          "name": "withdrawAddress",
          "type": "address"
        },
        {
          "internalType": "uint256",
          "name": "amount",
          "type": "uint256"
        }
      ],
      "name": "withdrawTo",
      "outputs": [],
      "stateMutability": "nonpayable",
      "type": "function"
    }
  ],
  "bytecode": "0x60a060405234801561000f575f5ffd5b506040516116ae3803806116ae83398101604081905261002e91610248565b82338061005557604051631e4fbdf760e01b81525f60048201526024015b60405180910390fd5b61005e81610110565b506100688161012c565b6001600160a01b039081166080528316158061008b57506001600160a01b038216155b8061009d57506001600160a01b038116155b156100bb5760405163d92e233d60e01b815260040160405180910390fd5b600280546001600160a01b0319166001600160a01b0384161790556100e75f546001600160a01b031690565b6001600160a01b0316816001600160a01b0316146101085761010881610110565b5050506102b8565b600180546001600160a01b0319169055610129816101e5565b50565b6040516301ffc9a760e01b8152631313998b60e31b60048201526001600160a01b038216906301ffc9a790602401602060405180830381865afa158015610175573d5f5f3e3d5ffd5b505050506040513d601f19601f820116820180604052508101906101999190610292565b6101295760405162461bcd60e51b815260206004820152601e60248201527f49456e747279506f696e7420696e74657266616365206d69736d617463680000604482015260640161004c565b5f80546001600160a01b038381166001600160a01b0319831681178455604051919092169283917f8be0079c531659141344cd1fd0a4f28419497f9722a3daafe3b4186f6b6457e09190a35050565b6001600160a01b0381168114610129575f5ffd5b5f5f5f6060848603121561025a575f5ffd5b835161026581610234565b602085015190935061027681610234565b604085015190925061028781610234565b809150509250925092565b5f602082840312156102a2575f5ffd5b815180151581146102b1575f5ffd5b9392505050565b6080516113986103165f395f81816102390152818161033d015281816103d001528181610536015281816105f9015281816106be01528181610728015281816107b30152818161081b0152818161095f0152610ab501526113985ff3fe608060405260043610610105575f3560e01c8063b0d691fe11610092578063c399ec8811610062578063c399ec88146102ad578063d0e30db0146102cf578063e2c41dbc146102d7578063e30c3978146102df578063f2fde38b146102fc575f5ffd5b8063b0d691fe14610228578063bb9fe6bf1461025b578063c10753291461026f578063c23a5cea1461028e575f5ffd5b8063715018a6116100d8578063715018a6146101a657806379ba5097146101ba5780637c627b21146101ce5780638da5cb5b146101ed578063a7ecd37e14610209575f5ffd5b80630396cb6014610109578063205c28781461011e57806323d9ac9b1461013d57806352b7512c14610179575b5f5ffd5b61011c6101173660046110a8565b61031b565b005b348015610129575f5ffd5b5061011c6101383660046110e6565b6103a2565b348015610148575f5ffd5b5060025461015c906001600160a01b031681565b6040516001600160a01b0390911681526020015b60405180910390f35b348015610184575f5ffd5b50610198610193366004611110565b610411565b60405161017092919061115f565b3480156101b1575f5ffd5b5061011c610434565b3480156101c5575f5ffd5b5061011c610447565b3480156101d9575f5ffd5b5061011c6101e836600461119b565b610490565b3480156101f8575f5ffd5b505f546001600160a01b031661015c565b348015610214575f5ffd5b5061011c61022336600461122f565b6104ac565b348015610233575f5ffd5b5061015c7f000000000000000000000000000000000000000000000000000000000000000081565b348015610266575f5ffd5b5061011c61052c565b34801561027a575f5ffd5b5061011c6102893660046110e6565b6105a4565b348015610299575f5ffd5b5061011c6102a836600461122f565b610697565b3480156102b8575f5ffd5b506102c1610711565b604051908152602001610170565b61011c61079e565b61011c6107fe565b3480156102ea575f5ffd5b506001546001600160a01b031661015c565b348015610307575f5ffd5b5061011c61031636600461122f565b6108b8565b610323610928565b604051621cb65b60e51b815263ffffffff821660048201527f00000000000000000000000000000000000000000000000000000000000000006001600160a01b031690630396cb609034906024015f604051808303818588803b158015610388575f5ffd5b505af115801561039a573d5f5f3e3d5ffd5b505050505050565b6103aa610928565b60405163040b850f60e31b81526001600160a01b038381166004830152602482018390527f0000000000000000000000000000000000000000000000000000000000000000169063205c2878906044015f604051808303815f87803b158015610388575f5ffd5b60605f61041c610954565b6104278585856109c4565b915091505b935093915050565b61043c610928565b6104455f610db8565b565b60015433906001600160a01b031681146104845760405163118cdaa760e01b81526001600160a01b03821660048201526024015b60405180910390fd5b61048d81610db8565b50565b610498610954565b6104a58585858585610dd1565b5050505050565b6104b4610928565b6001600160a01b0381166104db5760405163d92e233d60e01b815260040160405180910390fd5b600280546001600160a01b038381166001600160a01b0319831681179093556040519116919082907f2d025324f0a785e8c12d0a0d91a9caa49df4ef20ff87e0df7213a1d4f3157beb905f90a35050565b610534610928565b7f00000000000000000000000000000000000000000000000000000000000000006001600160a01b031663bb9fe6bf6040518163ffffffff1660e01b81526004015f604051808303815f87803b15801561058c575f5ffd5b505af115801561059e573d5f5f3e3d5ffd5b50505050565b6105ac610928565b6001600160a01b0382166105d35760405163d92e233d60e01b815260040160405180910390fd5b60405163040b850f60e31b81526001600160a01b038381166004830152602482018390527f0000000000000000000000000000000000000000000000000000000000000000169063205c2878906044015f604051808303815f87803b15801561063a575f5ffd5b505af115801561064c573d5f5f3e3d5ffd5b50505050816001600160a01b03167feaff4b37086828766ad3268786972c0cd24259d4c87a80f9d3963a3c3d999b0d8260405161068b91815260200190565b60405180910390a25050565b61069f610928565b60405163611d2e7560e11b81526001600160a01b0382811660048301527f0000000000000000000000000000000000000000000000000000000000000000169063c23a5cea906024015f604051808303815f87803b1580156106ff575f5ffd5b505af11580156104a5573d5f5f3e3d5ffd5b6040516370a0823160e01b81523060048201525f907f00000000000000000000000000000000000000000000000000000000000000006001600160a01b0316906370a0823190602401602060405180830381865afa158015610775573d5f5f3e3d5ffd5b505050506040513d601f19601f82011682018060405250810190610799919061124a565b905090565b60405163b760faf960e01b81523060048201527f00000000000000000000000000000000000000000000000000000000000000006001600160a01b03169063b760faf99034906024015f604051808303818588803b1580156106ff575f5ffd5b610806610928565b60405163b760faf960e01b81523060048201527f00000000000000000000000000000000000000000000000000000000000000006001600160a01b03169063b760faf99034906024015f604051808303818588803b158015610866575f5ffd5b505af1158015610878573d5f5f3e3d5ffd5b50505050507f7cb5d45c1071f219bd2da1ea101758715bd52f23f2a707f2d9a0387dea18d906346040516108ae91815260200190565b60405180910390a1565b6108c0610928565b600180546001600160a01b0383166001600160a01b031990911681179091556108f05f546001600160a01b031690565b6001600160a01b03167f38d16b8cac22d99fc7c124b9cd0de2d3fa1faef420bfe791d8c362d765e2270060405160405180910390a350565b5f546001600160a01b031633146104455760405163118cdaa760e01b815233600482015260240161047b565b336001600160a01b037f000000000000000000000000000000000000000000000000000000000000000016146104455760405162461bcd60e51b815260206004820152601560248201527414d95b99195c881b9bdd08115b9d1c9e541bda5b9d605a1b604482015260640161047b565b60605f60816109d660e0870187611261565b905010156109f757604051638baa579f60e01b815260040160405180910390fd5b5f610a0560e0870187611261565b610a1491603a916034916112ab565b610a1d916112d2565b60d01c90505f610a3060e0880188611261565b610a3f91604091603a916112ab565b610a48916112d2565b60d01c905065ffffffffffff82168110610a755760405163536a71af60e01b815260040160405180910390fd5b8165ffffffffffff16421115610a9e57604051630819bdcd60e01b815260040160405180910390fd5b6040516370a0823160e01b815230600482015285907f00000000000000000000000000000000000000000000000000000000000000006001600160a01b0316906370a0823190602401602060405180830381865afa158015610b02573d5f5f3e3d5ffd5b505050506040513d601f19601f82011682018060405250810190610b26919061124a565b1015610b455760405163070f6eed60e11b815260040160405180910390fd5b5f8681526003602052604090205460ff1615610b8257610b6760018383610e31565b60405180602001604052805f8152509093509350505061042c565b365f610b9160e08a018a611261565b610b9f9160409082906112ab565b90925090505f610bb260208b018b61122f565b60208b0135610bc460608d018d611261565b604051610bd292919061130a565b604080519182900382206001600160a01b03909416602083015281019190915260608101919091526080808c01359082015260a0808c01359082015260c0808c01359082015265ffffffffffff80871660e08301528516610100820152466101208201526101400160408051601f198184030181528282528051602091820120908301819052309183019190915291505f906060016040516020818303038152906040528051906020012090505f610cb6827f19457468657265756d205369676e6564204d6573736167653a0a3332000000005f908152601c91909152603c902090565b90505f610cf88287878080601f0160208091040260200160405190810160405280939291908181526020018383808284375f92019190915250610e6492505050565b6002549091506001600160a01b03808316911614610d3d57610d1c60018989610e31565b60405180602001604052805f8152509099509950505050505050505061042c565b5f8c8152600360209081526040909120805460ff191660011790558c90610d66908f018f61122f565b6040805160208101939093526001600160a01b03909116908201525f6060820152608001604051602081830303815290604052610da45f8a8a610e31565b995099505050505050505050935093915050565b600180546001600160a01b031916905561048d81610e8c565b5f80610ddf85870187611319565b5091509150806001600160a01b0316827fb5a8c32ff536e8a8db8c1230854e6e29fef690a98b6346719a3dabad95a08ff986604051610e2091815260200190565b60405180910390a350505050505050565b5f60d08265ffffffffffff16901b60a08465ffffffffffff16901b85610e57575f610e5a565b60015b1717949350505050565b5f5f5f5f610e728686610edb565b925092509250610e828282610f24565b5090949350505050565b5f80546001600160a01b038381166001600160a01b0319831681178455604051919092169283917f8be0079c531659141344cd1fd0a4f28419497f9722a3daafe3b4186f6b6457e09190a35050565b5f5f5f8351604103610f12576020840151604085015160608601515f1a610f0488828585610fe0565b955095509550505050610f1d565b505081515f91506002905b9250925092565b5f826003811115610f3757610f3761134e565b03610f40575050565b6001826003811115610f5457610f5461134e565b03610f725760405163f645eedf60e01b815260040160405180910390fd5b6002826003811115610f8657610f8661134e565b03610fa75760405163fce698f760e01b81526004810182905260240161047b565b6003826003811115610fbb57610fbb61134e565b03610fdc576040516335e2f38360e21b81526004810182905260240161047b565b5050565b5f80807f7fffffffffffffffffffffffffffffff5d576e7357a4501ddfe92f46681b20a084111561101957505f9150600390508261109e565b604080515f808252602082018084528a905260ff891692820192909252606081018790526080810186905260019060a0016020604051602081039080840390855afa15801561106a573d5f5f3e3d5ffd5b5050604051601f1901519150506001600160a01b03811661109557505f92506001915082905061109e565b92505f91508190505b9450945094915050565b5f602082840312156110b8575f5ffd5b813563ffffffff811681146110cb575f5ffd5b9392505050565b6001600160a01b038116811461048d575f5ffd5b5f5f604083850312156110f7575f5ffd5b8235611102816110d2565b946020939093013593505050565b5f5f5f60608486031215611122575f5ffd5b833567ffffffffffffffff811115611138575f5ffd5b8401610120818703121561114a575f5ffd5b95602085013595506040909401359392505050565b604081525f83518060408401528060208601606085015e5f606082850101526060601f19601f8301168401019150508260208301529392505050565b5f5f5f5f5f608086880312156111af575f5ffd5b8535600381106111bd575f5ffd5b9450602086013567ffffffffffffffff8111156111d8575f5ffd5b8601601f810188136111e8575f5ffd5b803567ffffffffffffffff8111156111fe575f5ffd5b88602082840101111561120f575f5ffd5b959860209190910197509495604081013595606090910135945092505050565b5f6020828403121561123f575f5ffd5b81356110cb816110d2565b5f6020828403121561125a575f5ffd5b5051919050565b5f5f8335601e19843603018112611276575f5ffd5b83018035915067ffffffffffffffff821115611290575f5ffd5b6020019150368190038213156112a4575f5ffd5b9250929050565b5f5f858511156112b9575f5ffd5b838611156112c5575f5ffd5b5050820193919092039150565b80356001600160d01b03198116906006841015611303576001600160d01b0319600685900360031b81901b82161691505b5092915050565b818382375f9101908152919050565b5f5f5f6060848603121561132b575f5ffd5b83359250602084013561133d816110d2565b929592945050506040919091013590565b634e487b7160e01b5f52602160045260245ffdfea264697066735822122087af5195f29c7c1da13e1d53d4e09ca0a70970cf1de5cb19c0a1f85c17e8ba3f64736f6c634300081c0033",
  "linkReferences": {},
  "deployedLinkReferences": {},
  "immutableReferences": {
    "14": [
      {
        "length": 32,
        "start": 569
      },
      {
        "length": 32,
        "start": 829
      },
      {
        "length": 32,
        "start": 976
      },
      {
        "length": 32,
        "start": 1334
      },
      {
        "length": 32,
        "start": 1529
      },
      {
        "length": 32,
        "start": 1726
      },
      {
        "length": 32,
        "start": 1832
      },
      {
        "length": 32,
        "start": 1971
      },
      {
        "length": 32,
        "start": 2075
      },
      {
        "length": 32,
        "start": 2399
      },
      {
        "length": 32,
        "start": 2741
      }
    ]
  },
  "inputSourceName": "project/contracts/VerifyingPaymaster.sol",
  "buildInfoId": "solc-0_8_28-e48d1ed3cb0c156f6c5411ab7e015bb7916d5d0d"
}